:100000000C942A000C9434000C9434000C943400AA
:100010000C9434000C9434000C9434000C94340090
:100020000C9434000C9434000C9434000C94340080
:100030000C9434000C9434000C9434000C94340070
:100040000C9434000C9434000C9434000C94340060
:100050000C94340011241FBECFE5D8E0DEBFCDBF25
:100060000E94FD050C94C8070C940000CF93DF9309
:1000700000D00F92CDB7DEB789836A834B838B8123
:10008000882F90E0009721F0019709F475C0E7C030
:100090008981882F90E08330910509F455C0843020
:1000A00091050CF0D9C082309105B9F183309105EA
:1000B0000CF0D2C0009719F00197C1F0CDC08AE3CF
:1000C00090E0FC018081482F8A81282F30E081E078
:1000D00090E002C0880F991F2A95E2F78095242F9F
:1000E00028238AE390E0FC01208345C087E390E069
:1000F000FC018081482F8A81282F30E081E090E048
:1001000002C0880F991F2A95E2F78095242F282393
:1001100087E390E0FC0120832EC084E390E0FC01A3
:100120008081482F8A81282F30E081E090E002C052
:10013000880F991F2A95E2F78095242F282384E3BE
:1001400090E0FC01208317C081E390E0FC018081F6
:10015000482F8A81282F30E081E090E002C0880F8C
:10016000991F2A95E2F78095242F282381E390E0B8
:10017000FC012083000070C08981882F90E08330CB
:10018000910509F452C0843091050CF067C08230AB
:100190009105A9F1833091050CF060C0009719F02A
:1001A0000197B9F05BC08AE390E0FC018081482FA1
:1001B0008A81282F30E081E090E002C0880F991FEB
:1001C0002A95E2F7242F282B8AE390E0FC01208374
:1001D00042C087E390E0FC018081482F8A81282F6C
:1001E00030E081E090E002C0880F991F2A95E2F785
:1001F000242F282B87E390E0FC0120832CC084E38C
:1002000090E0FC018081482F8A81282F30E081E036
:1002100090E002C0880F991F2A95E2F7242F282B1F
:1002200084E390E0FC01208316C081E390E0FC01B0
:100230008081482F8A81282F30E081E090E002C041
:10024000880F991F2A95E2F7242F282B81E390E04D
:10025000FC012083000002C0000001C0000000007B
:100260000F900F900F90DF91CF910895CF93DF9370
:1002700000D00F92CDB7DEB789836A834B838B8121
:10028000882F90E0009721F0019709F475C0E7C02E
:100290008981882F90E08330910509F455C084301E
:1002A00091050CF0D9C082309105B9F183309105E8
:1002B0000CF0D2C0009719F00197C1F0CDC08BE3CC
:1002C00090E0FC018081482F8A81282F30E081E076
:1002D00090E002C0880F991F2A95E2F78095242F9D
:1002E00028238BE390E0FC01208345C088E390E065
:1002F000FC018081482F8A81282F30E081E090E046
:1003000002C0880F991F2A95E2F78095242F282391
:1003100088E390E0FC0120832EC085E390E0FC019F
:100320008081482F8A81282F30E081E090E002C050
:10033000880F991F2A95E2F78095242F282385E3BB
:1003400090E0FC01208317C082E390E0FC018081F3
:10035000482F8A81282F30E081E090E002C0880F8A
:10036000991F2A95E2F78095242F282382E390E0B5
:10037000FC012083000070C08981882F90E08330C9
:10038000910509F452C0843091050CF067C08230A9
:100390009105A9F1833091050CF060C0009719F028
:1003A0000197B9F05BC08BE390E0FC018081482F9E
:1003B0008A81282F30E081E090E002C0880F991FE9
:1003C0002A95E2F7242F282B8BE390E0FC01208371
:1003D00042C088E390E0FC018081482F8A81282F69
:1003E00030E081E090E002C0880F991F2A95E2F783
:1003F000242F282B88E390E0FC0120832CC085E388
:1004000090E0FC018081482F8A81282F30E081E034
:1004100090E002C0880F991F2A95E2F7242F282B1D
:1004200085E390E0FC01208316C082E390E0FC01AC
:100430008081482F8A81282F30E081E090E002C03F
:10044000880F991F2A95E2F7242F282B82E390E04A
:10045000FC012083000002C0000001C00000000079
:100460000F900F900F90DF91CF910895CF93DF936E
:1004700000D0CDB7DEB789836A838981882F90E069
:100480008330910509F452C0843091050CF064C0AA
:1004900082309105A9F1833091050CF05DC0009781
:1004A00019F00197B9F058C08BE390E0FC0180810E
:1004B000482F8A81282F30E081E090E002C0880F29
:1004C000991F2A95E2F7242F28278BE390E0FC015F
:1004D000208342C088E390E0FC018081482F8A811C
:1004E000282F30E081E090E002C0880F991F2A9504
:1004F000E2F7242F282788E390E0FC0120832CC01A
:1005000085E390E0FC018081482F8A81282F30E02C
:1005100081E090E002C0880F991F2A95E2F7242F0E
:10052000282785E390E0FC01208316C082E390E059
:10053000FC018081482F8A81282F30E081E090E003
:1005400002C0880F991F2A95E2F7242F282782E3FB
:1005500090E0FC012083000000000F900F90DF91DD
:10056000CF910895CF93DF9300D000D0CDB7DEB701
:1005700089836A835C834B838981882F90E08330F1
:10058000910509F44FC0843091050CF060C08230B1
:10059000910599F1833091050CF059C0009719F03D
:1005A0000197B1F054C089E390E0FC018081882F6D
:1005B00090E02A81222F30E002C0959587952A95F8
:1005C000E2F7282F21708B819C81FC0120833FC0A2
:1005D00086E390E0FC018081882F90E02A81222F21
:1005E00030E002C0959587952A95E2F7282F217073
:1005F0008B819C81FC0120832AC083E390E0FC0175
:100600008081882F90E02A81222F30E002C09595CA
:1006100087952A95E2F7282F21708B819C81FC0118
:10062000208315C080E390E0FC018081882F90E05A
:100630002A81222F30E002C0959587952A95E2F70E
:10064000282F21708B819C81FC01208300000000F9
:100650000F900F900F900F90DF91CF910895CF934F
:10066000DF9300D0CDB7DEB789836A838981882F75
:1006700090E08330910501F1843091051CF58230C2
:100680009105A1F083309105ECF4009719F00197E2
:1006900039F018C08BE390E02A81FC01208312C05E
:1006A00088E390E02A81FC0120830CC085E390E080
:1006B0002A81FC01208306C082E390E02A81FC01AC
:1006C0002083000000000F900F90DF91CF910895DC
:1006D000CF93DF9300D0CDB7DEB789836A8389815A
:1006E000882F90E08330910501F1843091051CF54D
:1006F00082309105A1F083309105ECF4009719F058
:10070000019739F018C08BE390E02A81FC01208327
:1007100012C088E390E02A81FC0120830CC085E3AD
:1007200090E02A81FC01208306C082E390E02A81C8
:10073000FC012083000000000F900F90DF91CF910B
:100740000895CF93DF930F92CDB7DEB78983898168
:10075000882F90E08330910561F1843091059CF5FC
:1007600082309105E1F0833091056CF5009719F026
:10077000019759F028C08BE390E0FC0120818BE3C6
:1007800090E02095FC0120831EC088E390E0FC01EE
:10079000208188E390E02095FC01208314C085E34C
:1007A00090E0FC01208185E390E02095FC0120830E
:1007B0000AC082E390E0FC01208182E390E0209572
:1007C000FC012083000000000F90DF91CF9108957D
:1007D000CF93DF9300D00F92CDB7DEB789837B83B1
:1007E0006A838981882F90E08330910549F18430B4
:1007F00091057CF582309105D1F0833091054CF55F
:10080000009719F0019751F024C08BE390E0FC01B0
:1008100020818A819B81FC0120831BC088E390E0BA
:10082000FC0120818A819B81FC01208312C085E329
:1008300090E0FC0120818A819B81FC01208309C01A
:1008400082E390E0FC0120818A819B81FC0120836E
:10085000000000000F900F900F90DF91CF9108954E
:10086000CF93DF9300D0CDB7DEB789836A838981C8
:10087000882F90E08330910509F452C084309105AF
:100880000CF064C082309105A9F1833091050CF021
:100890005DC0009719F00197B9F058C08BE390E064
:1008A000FC018081482F8A81282F30E081E090E090
:1008B00002C0880F991F2A95E2F7242F282B8BE37B
:1008C00090E0FC01208342C088E390E0FC0180813D
:1008D000482F8A81282F30E081E090E002C0880F05
:1008E000991F2A95E2F7242F282B88E390E0FC013A
:1008F00020832CC085E390E0FC018081482F8A8111
:10090000282F30E081E090E002C0880F991F2A95DF
:10091000E2F7242F282B85E390E0FC01208316C00A
:1009200082E390E0FC018081482F8A81282F30E00B
:1009300081E090E002C0880F991F2A95E2F7242FEA
:10094000282B82E390E0FC012083000000000F9040
:100950000F90DF91CF910895CF93DF93CDB7DEB79E
:1009600087E390E0FC01208187E390E02062FC01B6
:10097000208387E390E0FC01208187E390E02F7BD8
:10098000FC01208387E390E0FC01208187E390E075
:100990002068FC01208387E390E0FC01208187E34D
:1009A00090E02061FC0120838DE290E0FC01208139
:1009B0008DE290E02F77FC0120838DE290E0FC0136
:1009C00020818DE290E02061FC0120838DE290E0A7
:1009D000FC0120818DE290E02062FC0120838DE209
:1009E00090E0FC0120818DE290E0277FFC012083D4
:1009F0008EE290E0FC0120818EE290E02E7FFC01EF
:100A000020838DE290E0FC0120818DE290E0226065
:100A1000FC0120838DE290E0FC0120818DE290E0DA
:100A20002160FC0120838DE290E0FC0120818DE2B9
:100A300090E02064FC0120830000DF91CF910895B5
:100A4000CF93DF930F92CDB7DEB789838FE290E02B
:100A50002981FC01208300008EE290E0FC0180816E
:100A6000881F8827881F882F90E081709927019719
:100A700099F7000000000F90DF91CF910895CF9378
:100A8000DF9300D0CDB7DEB79A83898300008EE272
:100A900090E0FC018081881F8827881F882F90E0C4
:100AA00081709927019799F78FE290E0FC012081EE
:100AB00089819A81FC01208300000F900F90DF91C3
:100AC000CF910895CF93DF930F92CDB7DEB789838F
:100AD0008981882349F488E390E0FC01208188E340
:100AE00090E02F7EFC01208300000F90DF91CF91DA
:100AF0000895CF93DF9300D0CDB7DEB71A82198265
:100B00008AE290E028E1FC01208380E490E026E87E
:100B1000FC01208387E690E09A83898389E290E054
:100B20002981FC01208389819A81292F332780E440
:100B300090E0FC01208300000F900F90DF91CF9197
:100B40000895CF93DF930F92CDB7DEB789838CE200
:100B500090E02981FC01208300008BE290E0FC0101
:100B600080818295869586958370882F90E081702C
:100B70009927019791F7000000000F90DF91CF9126
:100B80000895CF93DF93CDB7DEB700008BE290E0FE
:100B9000FC018081881F8827881F882F90E0817042
:100BA0009927019799F78CE290E0FC018081DF9111
:100BB000CF910895CF93DF9300D0CDB7DEB79A835E
:100BC000898300008BE290E0FC018081881F8827E8
:100BD000881F882F90E081709927019799F78CE200
:100BE00090E0FC01208189819A81FC01208381E0D1
:100BF0000F900F90DF91CF910895CF93DF93CDB7F2
:100C0000DEB7A3970FB6F894DEBF0FBECDBF0E942C
:100C1000AC0480E00E9462050E94790540E060E03B
:100C200083E00E94360041E061E083E00E943600EC
:100C30000E94C105898389810E94200580E090E09F
:100C4000A6E1B3E48A839B83AC83BD8320E030E0DC
:100C50004AE755E46A817B818C819D810E9433073C
:100C60006C8B7D8B8E8B9F8B8C899D89AE89BF8988
:100C70008E839F83A887B98720E030E040E85FE358
:100C80006E817F81888599850E94AD0688232CF42A
:100C900081E090E09B878A8754C020E03FEF4FE7D8
:100CA00057E46E817F81888599850E942E071816EA
:100CB000D4F520E030E040E251E46A817B818C8110
:100CC0009D810E943307688F798F8A8F9B8F888DD3
:100CD000998DAA8DBB8D888B998BAA8BBB8B6889CC
:100CE00079898A899B890E94B2066C8F7D8F8E8F4D
:100CF0009F8FAC8DBD8DBB87AA8710C080E991E026
:100D00009D878C878C859D850197F1F79D878C87C2
:100D100000008A859B8501979B878A878A859B85AA
:100D2000892B61F719C06E817F81888599850E9422
:100D3000B20668A379A38AA39BA388A199A19B87E4
:100D40008A878A859B859F878E878E859F85019759
:100D5000F1F79F878E8700006BCF0E94E10608F4B1
:100D600081E008950E940D0788F09F5798F0B92FF1
:100D70009927B751B0F0E1F0660F771F881F991FD0
:100D80001AF0BA95C9F714C0B13091F00E94270744
:100D9000B1E008950C942707672F782F8827B85F54
:100DA00039F0B93FCCF3869577956795B395D9F728
:100DB0003EF490958095709561957F4F8F4F9F4F32
:100DC0000895990F0008550FAA0BE0E8FEEF1616DC
:100DD0001706E807F907C0F012161306E407F5072F
:100DE00098F0621B730B840B950B39F40A2661F0A3
:100DF000232B242B252B21F408950A2609F4A14046
:100E0000A6958FEF811D811D089557FD9058440FC1
:100E1000551F59F05F3F71F04795880F97FB991F59
:100E200061F09F3F79F08795089512161306140616
:100E3000551FF2CF4695F1DF08C0161617061806A3
:100E4000991FF1CF86957105610508940895E8947E
:100E5000BB2766277727CB0197F908950E94E10603
:100E600008F48FEF08950E9446070C94B7070E947C
:100E7000A90738F00E94B00720F0952311F00C94D8
:100E8000A0070C94A60711240C9428070E940507BC
:100E900070F3959FC1F3950F50E0551F629FF001CD
:100EA000729FBB27F00DB11D639FAA27F00DB11DE6
:100EB000AA1F649F6627B00DA11D661F829F22276F
:100EC000B00DA11D621F739FB00DA11D621F839FF6
:100ED000A00D611D221F749F3327A00D611D231FCC
:100EE000849F600D211D822F762F6A2F11249F571A
:100EF00050409AF0F1F088234AF0EE0FFF1FBB1F1D
:100F0000661F771F881F91505040A9F79E3F5105DB
:100F100080F00C94A0070C9428075F3FE4F3983E00
:100F2000D4F3869577956795B795F795E7959F5F85
:100F3000C1F7FE2B880F911D9695879597F9089517
:100F400097F99F6780E870E060E008959FEF80EC7C
:100F5000089500240A94161617061806090608951F
:100F600000240A9412161306140605060895092E85
:100F70000394000C11F4882352F0BB0F40F4BF2BF4
:100F800011F460FF04C06F5F7F4F8F4F9F4F089534
:040F9000F894FFCF03
:00000001FF
