:100000000C942A000C9434000C9434000C943400AA
:100010000C9434000C9434000C9434000C94340090
:100020000C9434000C9434000C9434000C94340080
:100030000C9434000C9434000C9434000C94340070
:100040000C9434000C9434000C9434000C94340060
:100050000C94340011241FBECFE5D8E0DEBFCDBF25
:100060000E94C7050C9421060C940000CF93DF93E7
:1000700000D00F92CDB7DEB789836A834B838B8123
:10008000882F90E0009721F0019709F475C0E7C030
:100090008981882F90E08330910509F455C0843020
:1000A00091050CF0D9C082309105B9F183309105EA
:1000B0000CF0D2C0009719F00197C1F0CDC08AE3CF
:1000C00090E0FC018081482F8A81282F30E081E078
:1000D00090E002C0880F991F2A95E2F78095242F9F
:1000E00028238AE390E0FC01208345C087E390E069
:1000F000FC018081482F8A81282F30E081E090E048
:1001000002C0880F991F2A95E2F78095242F282393
:1001100087E390E0FC0120832EC084E390E0FC01A3
:100120008081482F8A81282F30E081E090E002C052
:10013000880F991F2A95E2F78095242F282384E3BE
:1001400090E0FC01208317C081E390E0FC018081F6
:10015000482F8A81282F30E081E090E002C0880F8C
:10016000991F2A95E2F78095242F282381E390E0B8
:10017000FC012083000070C08981882F90E08330CB
:10018000910509F452C0843091050CF067C08230AB
:100190009105A9F1833091050CF060C0009719F02A
:1001A0000197B9F05BC08AE390E0FC018081482FA1
:1001B0008A81282F30E081E090E002C0880F991FEB
:1001C0002A95E2F7242F282B8AE390E0FC01208374
:1001D00042C087E390E0FC018081482F8A81282F6C
:1001E00030E081E090E002C0880F991F2A95E2F785
:1001F000242F282B87E390E0FC0120832CC084E38C
:1002000090E0FC018081482F8A81282F30E081E036
:1002100090E002C0880F991F2A95E2F7242F282B1F
:1002200084E390E0FC01208316C081E390E0FC01B0
:100230008081482F8A81282F30E081E090E002C041
:10024000880F991F2A95E2F7242F282B81E390E04D
:10025000FC012083000002C0000001C0000000007B
:100260000F900F900F90DF91CF910895CF93DF9370
:1002700000D00F92CDB7DEB789836A834B838B8121
:10028000882F90E0009721F0019709F475C0E7C02E
:100290008981882F90E08330910509F455C084301E
:1002A00091050CF0D9C082309105B9F183309105E8
:1002B0000CF0D2C0009719F00197C1F0CDC08BE3CC
:1002C00090E0FC018081482F8A81282F30E081E076
:1002D00090E002C0880F991F2A95E2F78095242F9D
:1002E00028238BE390E0FC01208345C088E390E065
:1002F000FC018081482F8A81282F30E081E090E046
:1003000002C0880F991F2A95E2F78095242F282391
:1003100088E390E0FC0120832EC085E390E0FC019F
:100320008081482F8A81282F30E081E090E002C050
:10033000880F991F2A95E2F78095242F282385E3BB
:1003400090E0FC01208317C082E390E0FC018081F3
:10035000482F8A81282F30E081E090E002C0880F8A
:10036000991F2A95E2F78095242F282382E390E0B5
:10037000FC012083000070C08981882F90E08330C9
:10038000910509F452C0843091050CF067C08230A9
:100390009105A9F1833091050CF060C0009719F028
:1003A0000197B9F05BC08BE390E0FC018081482F9E
:1003B0008A81282F30E081E090E002C0880F991FE9
:1003C0002A95E2F7242F282B8BE390E0FC01208371
:1003D00042C088E390E0FC018081482F8A81282F69
:1003E00030E081E090E002C0880F991F2A95E2F783
:1003F000242F282B88E390E0FC0120832CC085E388
:1004000090E0FC018081482F8A81282F30E081E034
:1004100090E002C0880F991F2A95E2F7242F282B1D
:1004200085E390E0FC01208316C082E390E0FC01AC
:100430008081482F8A81282F30E081E090E002C03F
:10044000880F991F2A95E2F7242F282B82E390E04A
:10045000FC012083000002C0000001C00000000079
:100460000F900F900F90DF91CF910895CF93DF936E
:1004700000D0CDB7DEB789836A838981882F90E069
:100480008330910509F452C0843091050CF064C0AA
:1004900082309105A9F1833091050CF05DC0009781
:1004A00019F00197B9F058C08BE390E0FC0180810E
:1004B000482F8A81282F30E081E090E002C0880F29
:1004C000991F2A95E2F7242F28278BE390E0FC015F
:1004D000208342C088E390E0FC018081482F8A811C
:1004E000282F30E081E090E002C0880F991F2A9504
:1004F000E2F7242F282788E390E0FC0120832CC01A
:1005000085E390E0FC018081482F8A81282F30E02C
:1005100081E090E002C0880F991F2A95E2F7242F0E
:10052000282785E390E0FC01208316C082E390E059
:10053000FC018081482F8A81282F30E081E090E003
:1005400002C0880F991F2A95E2F7242F282782E3FB
:1005500090E0FC012083000000000F900F90DF91DD
:10056000CF910895CF93DF9300D000D0CDB7DEB701
:1005700089836A835C834B838981882F90E08330F1
:10058000910509F44FC0843091050CF060C08230B1
:10059000910599F1833091050CF059C0009719F03D
:1005A0000197B1F054C089E390E0FC018081882F6D
:1005B00090E02A81222F30E002C0959587952A95F8
:1005C000E2F7282F21708B819C81FC0120833FC0A2
:1005D00086E390E0FC018081882F90E02A81222F21
:1005E00030E002C0959587952A95E2F7282F217073
:1005F0008B819C81FC0120832AC083E390E0FC0175
:100600008081882F90E02A81222F30E002C09595CA
:1006100087952A95E2F7282F21708B819C81FC0118
:10062000208315C080E390E0FC018081882F90E05A
:100630002A81222F30E002C0959587952A95E2F70E
:10064000282F21708B819C81FC01208300000000F9
:100650000F900F900F900F90DF91CF910895CF934F
:10066000DF9300D0CDB7DEB789836A838981882F75
:1006700090E08330910501F1843091051CF58230C2
:100680009105A1F083309105ECF4009719F00197E2
:1006900039F018C08BE390E02A81FC01208312C05E
:1006A00088E390E02A81FC0120830CC085E390E080
:1006B0002A81FC01208306C082E390E02A81FC01AC
:1006C0002083000000000F900F90DF91CF910895DC
:1006D000CF93DF9300D0CDB7DEB789836A8389815A
:1006E000882F90E08330910501F1843091051CF54D
:1006F00082309105A1F083309105ECF4009719F058
:10070000019739F018C08BE390E02A81FC01208327
:1007100012C088E390E02A81FC0120830CC085E3AD
:1007200090E02A81FC01208306C082E390E02A81C8
:10073000FC012083000000000F900F90DF91CF910B
:100740000895CF93DF930F92CDB7DEB78983898168
:10075000882F90E08330910561F1843091059CF5FC
:1007600082309105E1F0833091056CF5009719F026
:10077000019759F028C08BE390E0FC0120818BE3C6
:1007800090E02095FC0120831EC088E390E0FC01EE
:10079000208188E390E02095FC01208314C085E34C
:1007A00090E0FC01208185E390E02095FC0120830E
:1007B0000AC082E390E0FC01208182E390E0209572
:1007C000FC012083000000000F90DF91CF9108957D
:1007D000CF93DF9300D00F92CDB7DEB789837B83B1
:1007E0006A838981882F90E08330910549F18430B4
:1007F00091057CF582309105D1F0833091054CF55F
:10080000009719F0019751F024C08BE390E0FC01B0
:1008100020818A819B81FC0120831BC088E390E0BA
:10082000FC0120818A819B81FC01208312C085E329
:1008300090E0FC0120818A819B81FC01208309C01A
:1008400082E390E0FC0120818A819B81FC0120836E
:10085000000000000F900F900F90DF91CF9108954E
:10086000CF93DF9300D0CDB7DEB789836A838981C8
:10087000882F90E08330910509F452C084309105AF
:100880000CF064C082309105A9F1833091050CF021
:100890005DC0009719F00197B9F058C08BE390E064
:1008A000FC018081482F8A81282F30E081E090E090
:1008B00002C0880F991F2A95E2F7242F282B8BE37B
:1008C00090E0FC01208342C088E390E0FC0180813D
:1008D000482F8A81282F30E081E090E002C0880F05
:1008E000991F2A95E2F7242F282B88E390E0FC013A
:1008F00020832CC085E390E0FC018081482F8A8111
:10090000282F30E081E090E002C0880F991F2A95DF
:10091000E2F7242F282B85E390E0FC01208316C00A
:1009200082E390E0FC018081482F8A81282F30E00B
:1009300081E090E002C0880F991F2A95E2F7242FEA
:10094000282B82E390E0FC012083000000000F9040
:100950000F90DF91CF910895CF93DF93CDB7DEB79E
:1009600087E390E0FC01208187E390E02F7DFC018C
:10097000208387E390E0FC01208187E390E02064FE
:10098000FC01208387E390E0FC01208187E390E075
:100990002F77FC01208387E390E0FC01208187E32F
:1009A00090E02F7EFC0120838DE290E0FC0120810D
:1009B0008DE290E02F7EFC0120838DE290E0FC012F
:1009C00020818DE290E02064FC0120830000DF9113
:1009D000CF910895CF93DF930F92CDB7DEB7898380
:1009E0008FE290E02981FC01208300008EE290E0FC
:1009F000FC018081881F8827881F882F90E08170E4
:100A00009927019799F7000000000F90DF91CF918F
:100A10000895CF93DF9300D0CDB7DEB79A83898353
:100A200000008EE290E0FC018081881F8827881FEB
:100A3000882F90E081709927019799F78FE290E0D5
:100A4000FC01208189819A81FC01208300000F90A4
:100A50000F90DF91CF910895CF93DF930F92CDB791
:100A6000DEB789838981882349F488E390E0FC011B
:100A7000208188E390E02F7EFC01208300000F900E
:100A8000DF91CF910895CF93DF9300D0CDB7DEB73C
:100A90001A8219828AE290E028E1FC01208380E436
:100AA00090E026E8FC01208387E690E09A83898322
:100AB00089E290E02981FC01208389819A81292F94
:100AC000332780E490E0FC01208300000F900F901A
:100AD000DF91CF910895CF93DF930F92CDB7DEB71B
:100AE00089838CE290E02981FC01208300008BE265
:100AF00090E0FC0180818295869586958370882F91
:100B000090E081709927019791F7000000000F9005
:100B1000DF91CF910895CF93DF93CDB7DEB700007B
:100B20008BE290E0FC018081881F8827881F882F36
:100B300090E081709927019799F78CE290E0FC0191
:100B40008081DF91CF910895CF93DF9300D0CDB70F
:100B5000DEB79A83898300008BE290E0FC018081FC
:100B6000881F8827881F882F90E081709927019718
:100B700099F78CE290E0FC01208189819A81FC0147
:100B8000208381E00F900F90DF91CF910895CF9354
:100B9000DF930F92CDB7DEB70E94AC0484E390E000
:100BA000FC01808141E060E00E94360084E390E037
:100BB000FC01808141E061E00E94360084E390E026
:100BC000FC01808141E062E00E94360081E389837C
:100BD0008981813381F441E060E082E00E94360146
:100BE00040E061E082E00E94360140E062E082E0A5
:100BF0000E943601EBCF8981823381F440E060E0CE
:100C000082E00E94360141E061E082E00E9436010C
:100C100040E062E082E00E943601D8CF89818333D0
:100C2000A9F640E060E082E00E94360140E061E029
:100C300082E00E94360141E062E082E00E943601DB
:060C4000C5CFF894FFCFC0
:00000001FF
